:100000000C942A000C9434000C9434000C943400AA
:100010000C9434000C9434000C9434000C94340090
:100020000C9434000C9434000C9434000C94340080
:100030000C9434000C9434000C9434000C94340070
:100040000C9434000C9434000C9434000C94340060
:100050000C94340011241FBECFE5D4E0DEBFCDBF29
:100060000E9442000C9458000C94000085B58A66EA
:1000700085BD8F9A089583BD089588EE93E001971A
:10008000F1F7089585B58A6685BD8F9A20E048EE20
:1000900053E005C023BDCA010197F1F72F5F2F3F41
:1000A000C9F723BDCA010197F1F72150D1F7F7CF66
:0400B000F894FFCFF2
:00000001FF
